:100000000C9456000C9460000C9460000C946000FA
:100010000C9460000C9460000C9460000C946000E0
:100020000C9460000C9460000C9460000C946000D0
:100030000C9460000C9460000C9460000C946000C0
:100040000C9460000C9476000C9460000C9460009A
:100050000C9460000C9460000C9460000C946000A0
:100060000C9460000C9460000C9460000C94600090
:100070000C9460000C9460000C9460000C94600080
:100080000C9460000C9460000C9460000C94600070
:100090000C9460000C9460000C9460000C94600060
:1000A0000C9460000C9460000C94600011241FBE3E
:1000B000CFEFDAE0DEBFCDBF0E9485000C948C004C
:1000C0000C940000E1E8F0E080818860808381E4A6
:1000D0009FE09093890080938800AFE6B0E08C9118
:1000E00082608C9380818560808308951F920F9237
:1000F0000FB60F9211248F9388B1805888B98F91D1
:100100000F900FBE0F901F90189587B1806887B928
:0C0110000E9462007894FFCFF894FFCFAB
:00000001FF
